{
  "contractName": "MissingPersonsManagement",
  "abi": [
    {
      "inputs": [],
      "stateMutability": "nonpayable",
      "type": "constructor"
    },
    {
      "anonymous": false,
      "inputs": [
        {
          "indexed": false,
          "internalType": "uint256",
          "name": "serialNumber",
          "type": "uint256"
        },
        {
          "indexed": false,
          "internalType": "address",
          "name": "investigator",
          "type": "address"
        }
      ],
      "name": "InvestigatorAssigned",
      "type": "event"
    },
    {
      "anonymous": false,
      "inputs": [
        {
          "indexed": false,
          "internalType": "uint256",
          "name": "serialNumber",
          "type": "uint256"
        },
        {
          "indexed": false,
          "internalType": "string",
          "name": "name",
          "type": "string"
        },
        {
          "indexed": false,
          "internalType": "string",
          "name": "urgency",
          "type": "string"
        },
        {
          "indexed": false,
          "internalType": "address",
          "name": "reporter",
          "type": "address"
        }
      ],
      "name": "MissingPersonAdded",
      "type": "event"
    },
    {
      "anonymous": false,
      "inputs": [
        {
          "indexed": true,
          "internalType": "address",
          "name": "user",
          "type": "address"
        },
        {
          "indexed": false,
          "internalType": "string",
          "name": "message",
          "type": "string"
        },
        {
          "indexed": false,
          "internalType": "string",
          "name": "roleName",
          "type": "string"
        }
      ],
      "name": "UserRegistered",
      "type": "event"
    },
    {
      "inputs": [],
      "name": "missingPersonCount",
      "outputs": [
        {
          "internalType": "uint256",
          "name": "",
          "type": "uint256"
        }
      ],
      "stateMutability": "view",
      "type": "function",
      "constant": true
    },
    {
      "inputs": [
        {
          "internalType": "uint256",
          "name": "",
          "type": "uint256"
        }
      ],
      "name": "missingPersons",
      "outputs": [
        {
          "internalType": "uint256",
          "name": "serialNumber",
          "type": "uint256"
        },
        {
          "internalType": "string",
          "name": "name",
          "type": "string"
        },
        {
          "internalType": "uint256",
          "name": "age",
          "type": "uint256"
        },
        {
          "internalType": "uint256",
          "name": "height",
          "type": "uint256"
        },
        {
          "internalType": "string",
          "name": "status",
          "type": "string"
        },
        {
          "internalType": "string",
          "name": "description",
          "type": "string"
        },
        {
          "internalType": "string",
          "name": "lastSeenLocation",
          "type": "string"
        },
        {
          "internalType": "string",
          "name": "relativeContact",
          "type": "string"
        },
        {
          "internalType": "string",
          "name": "urgency",
          "type": "string"
        },
        {
          "internalType": "address",
          "name": "reporter",
          "type": "address"
        },
        {
          "internalType": "address",
          "name": "assignedInvestigator",
          "type": "address"
        }
      ],
      "stateMutability": "view",
      "type": "function",
      "constant": true
    },
    {
      "inputs": [],
      "name": "owner",
      "outputs": [
        {
          "internalType": "address",
          "name": "",
          "type": "address"
        }
      ],
      "stateMutability": "view",
      "type": "function",
      "constant": true
    },
    {
      "inputs": [
        {
          "internalType": "address",
          "name": "",
          "type": "address"
        }
      ],
      "name": "users",
      "outputs": [
        {
          "internalType": "string",
          "name": "nid",
          "type": "string"
        },
        {
          "internalType": "string",
          "name": "name",
          "type": "string"
        },
        {
          "internalType": "enum MissingPersonsManagement.Role",
          "name": "role",
          "type": "uint8"
        },
        {
          "internalType": "address",
          "name": "addr",
          "type": "address"
        }
      ],
      "stateMutability": "view",
      "type": "function",
      "constant": true
    },
    {
      "inputs": [
        {
          "internalType": "string",
          "name": "nid",
          "type": "string"
        },
        {
          "internalType": "string",
          "name": "name",
          "type": "string"
        },
        {
          "internalType": "enum MissingPersonsManagement.Role",
          "name": "role",
          "type": "uint8"
        }
      ],
      "name": "registerUser",
      "outputs": [],
      "stateMutability": "nonpayable",
      "type": "function"
    },
    {
      "inputs": [],
      "name": "getMyRole",
      "outputs": [
        {
          "internalType": "enum MissingPersonsManagement.Role",
          "name": "",
          "type": "uint8"
        }
      ],
      "stateMutability": "view",
      "type": "function",
      "constant": true
    },
    {
      "inputs": [],
      "name": "getMyRoleUint",
      "outputs": [
        {
          "internalType": "uint256",
          "name": "",
          "type": "uint256"
        }
      ],
      "stateMutability": "view",
      "type": "function",
      "constant": true
    },
    {
      "inputs": [
        {
          "internalType": "address",
          "name": "userAddr",
          "type": "address"
        }
      ],
      "name": "getUser",
      "outputs": [
        {
          "internalType": "string",
          "name": "",
          "type": "string"
        },
        {
          "internalType": "string",
          "name": "",
          "type": "string"
        },
        {
          "internalType": "enum MissingPersonsManagement.Role",
          "name": "",
          "type": "uint8"
        },
        {
          "internalType": "address",
          "name": "",
          "type": "address"
        }
      ],
      "stateMutability": "view",
      "type": "function",
      "constant": true
    },
    {
      "inputs": [
        {
          "internalType": "address",
          "name": "userAddr",
          "type": "address"
        }
      ],
      "name": "isRegistered",
      "outputs": [
        {
          "internalType": "bool",
          "name": "",
          "type": "bool"
        }
      ],
      "stateMutability": "view",
      "type": "function",
      "constant": true
    },
    {
      "inputs": [
        {
          "internalType": "string",
          "name": "name",
          "type": "string"
        },
        {
          "internalType": "uint256",
          "name": "age",
          "type": "uint256"
        },
        {
          "internalType": "uint256",
          "name": "height",
          "type": "uint256"
        },
        {
          "internalType": "string",
          "name": "description",
          "type": "string"
        },
        {
          "internalType": "string",
          "name": "lastSeenLocation",
          "type": "string"
        },
        {
          "internalType": "string",
          "name": "relativeContact",
          "type": "string"
        }
      ],
      "name": "addMissingPerson",
      "outputs": [],
      "stateMutability": "nonpayable",
      "type": "function"
    },
    {
      "inputs": [
        {
          "internalType": "uint256",
          "name": "serialNumber",
          "type": "uint256"
        }
      ],
      "name": "getMissingPerson",
      "outputs": [
        {
          "internalType": "string",
          "name": "",
          "type": "string"
        },
        {
          "internalType": "uint256",
          "name": "",
          "type": "uint256"
        },
        {
          "internalType": "string",
          "name": "",
          "type": "string"
        },
        {
          "internalType": "string",
          "name": "",
          "type": "string"
        },
        {
          "internalType": "address",
          "name": "",
          "type": "address"
        }
      ],
      "stateMutability": "view",
      "type": "function",
      "constant": true
    },
    {
      "inputs": [
        {
          "internalType": "uint256",
          "name": "serialNumber",
          "type": "uint256"
        },
        {
          "internalType": "string",
          "name": "newStatus",
          "type": "string"
        }
      ],
      "name": "updateMissingPersonStatus",
      "outputs": [],
      "stateMutability": "nonpayable",
      "type": "function"
    },
    {
      "inputs": [],
      "name": "getAllMissingPersons",
      "outputs": [
        {
          "internalType": "uint256[]",
          "name": "ids",
          "type": "uint256[]"
        },
        {
          "internalType": "string[]",
          "name": "names",
          "type": "string[]"
        },
        {
          "internalType": "uint256[]",
          "name": "ages",
          "type": "uint256[]"
        },
        {
          "internalType": "uint256[]",
          "name": "heights",
          "type": "uint256[]"
        },
        {
          "internalType": "string[]",
          "name": "descriptions",
          "type": "string[]"
        },
        {
          "internalType": "string[]",
          "name": "lastSeenLocations",
          "type": "string[]"
        },
        {
          "internalType": "string[]",
          "name": "relativeContacts",
          "type": "string[]"
        },
        {
          "internalType": "string[]",
          "name": "statuses",
          "type": "string[]"
        },
        {
          "internalType": "address[]",
          "name": "investigators",
          "type": "address[]"
        }
      ],
      "stateMutability": "view",
      "type": "function",
      "constant": true
    },
    {
      "inputs": [
        {
          "internalType": "uint256",
          "name": "caseId",
          "type": "uint256"
        },
        {
          "internalType": "address",
          "name": "investigator",
          "type": "address"
        }
      ],
      "name": "assignInvestigator",
      "outputs": [],
      "stateMutability": "nonpayable",
      "type": "function"
    }
  ],
  "bytecode": "0x6080604052600060025534801561001557600080fd5b50336000806101000a81548173ffffffffffffffffffffffffffffffffffffffff021916908373ffffffffffffffffffffffffffffffffffffffff1602179055506139eb806100656000396000f3fe608060405234801561001057600080fd5b50600436106100ea5760003560e01c80638da5cb5b1161008c578063b191d41811610066578063b191d41814610247578063c3c5a5471461027b578063dc32a81e146102ab578063f5a38aaf146102c7576100ea565b80638da5cb5b146101d8578063978af04c146101f6578063a87430ba14610214576100ea565b80632e17a931116100c85780632e17a9311461014f5780635f77d7601461016b5780636e3b47fc146101875780636f77926b146101a5576100ea565b806303213374146100ef5780630bf4cfe61461011557806324b2e0dc14610131575b600080fd5b6100f7610301565b60405161010c99989796959493929190612770565b60405180910390f35b61012f600480360381019061012a91906129b1565b610a5c565b005b610139610cae565b6040516101469190612a1c565b60405180910390f35b61016960048036038101906101649190612a5c565b610d17565b005b61018560048036038101906101809190612ae7565b610fd0565b005b61018f6113a9565b60405161019c9190612c5b565b60405180910390f35b6101bf60048036038101906101ba9190612ca2565b611400565b6040516101cf9493929190612d28565b60405180910390f35b6101e061162d565b6040516101ed9190612d7b565b60405180910390f35b6101fe611651565b60405161020b9190612a1c565b60405180910390f35b61022e60048036038101906102299190612ca2565b611657565b60405161023e9493929190612d28565b60405180910390f35b610261600480360381019061025c9190612d96565b6117c4565b604051610272959493929190612dc3565b60405180910390f35b61029560048036038101906102909190612ca2565b611c54565b6040516102a29190612e46565b60405180910390f35b6102c560048036038101906102c09190612e61565b611cd4565b005b6102e160048036038101906102dc9190612d96565b611f22565b6040516102f89b9a99989796959493929190612ea1565b60405180910390f35b6060806060806060806060806060600060025490508067ffffffffffffffff8111156103305761032f612886565b5b60405190808252806020026020018201604052801561035e5781602001602082028036833780820191505090505b5099508067ffffffffffffffff81111561037b5761037a612886565b5b6040519080825280602002602001820160405280156103ae57816020015b60608152602001906001900390816103995790505b5098508067ffffffffffffffff8111156103cb576103ca612886565b5b6040519080825280602002602001820160405280156103f95781602001602082028036833780820191505090505b5097508067ffffffffffffffff81111561041657610415612886565b5b6040519080825280602002602001820160405280156104445781602001602082028036833780820191505090505b5096508067ffffffffffffffff81111561046157610460612886565b5b60405190808252806020026020018201604052801561049457816020015b606081526020019060019003908161047f5790505b5095508067ffffffffffffffff8111156104b1576104b0612886565b5b6040519080825280602002602001820160405280156104e457816020015b60608152602001906001900390816104cf5790505b5094508067ffffffffffffffff81111561050157610500612886565b5b60405190808252806020026020018201604052801561053457816020015b606081526020019060019003908161051f5790505b5093508067ffffffffffffffff81111561055157610550612886565b5b60405190808252806020026020018201604052801561058457816020015b606081526020019060019003908161056f5790505b5092508067ffffffffffffffff8111156105a1576105a0612886565b5b6040519080825280602002602001820160405280156105cf5781602001602082028036833780820191505090505b50915060005b81811015610a4f5760006001826105ec9190612fa5565b9050600060036000838152602001908152602001600020905080600001548d848151811061061d5761061c612fd9565b5b60200260200101818152505080600101805461063890613037565b80601f016020809104026020016040519081016040528092919081815260200182805461066490613037565b80156106b15780601f10610686576101008083540402835291602001916106b1565b820191906000526020600020905b81548152906001019060200180831161069457829003601f168201915b50505050508c84815181106106c9576106c8612fd9565b5b602002602001018190525080600201548b84815181106106ec576106eb612fd9565b5b60200260200101818152505080600301548a84815181106107105761070f612fd9565b5b60200260200101818152505080600501805461072b90613037565b80601f016020809104026020016040519081016040528092919081815260200182805461075790613037565b80156107a45780601f10610779576101008083540402835291602001916107a4565b820191906000526020600020905b81548152906001019060200180831161078757829003601f168201915b50505050508984815181106107bc576107bb612fd9565b5b60200260200101819052508060060180546107d690613037565b80601f016020809104026020016040519081016040528092919081815260200182805461080290613037565b801561084f5780601f106108245761010080835404028352916020019161084f565b820191906000526020600020905b81548152906001019060200180831161083257829003601f168201915b505050505088848151811061086757610866612fd9565b5b602002602001018190525080600701805461088190613037565b80601f01602080910402602001604051908101604052809291908181526020018280546108ad90613037565b80156108fa5780601f106108cf576101008083540402835291602001916108fa565b820191906000526020600020905b8154815290600101906020018083116108dd57829003601f168201915b505050505087848151811061091257610911612fd9565b5b602002602001018190525080600401805461092c90613037565b80601f016020809104026020016040519081016040528092919081815260200182805461095890613037565b80156109a55780601f1061097a576101008083540402835291602001916109a5565b820191906000526020600020905b81548152906001019060200180831161098857829003601f168201915b50505050508684815181106109bd576109bc612fd9565b5b602002602001018190525080600a0160009054906101000a900473ffffffffffffffffffffffffffffffffffffffff16858481518110610a00576109ff612fd9565b5b602002602001019073ffffffffffffffffffffffffffffffffffffffff16908173ffffffffffffffffffffffffffffffffffffffff168152505050508080610a4790613068565b9150506105d5565b5050909192939495969798565b60016003811115610a7057610a6f612be4565b5b600160003373ffffffffffffffffffffffffffffffffffffffff1673ffffffffffffffffffffffffffffffffffffffff16815260200190815260200160002060020160009054906101000a900460ff166003811115610ad257610ad1612be4565b5b14610b12576040517f08c379a0000000000000000000000000000000000000000000000000000000008152600401610b09906130fc565b60405180910390fd5b60006003600084815260200190815260200160002090506000816001018054610b3a90613037565b905003610b7c576040517f08c379a0000000000000000000000000000000000000000000000000000000008152600401610b7390613168565b60405180910390fd5b6040518060400160405280600581526020017f666f756e640000000000000000000000000000000000000000000000000000008152508051906020012081600401604051610bca919061322b565b604051809103902003610c12576040517f08c379a0000000000000000000000000000000000000000000000000000000008152600401610c099061328e565b60405180910390fd5b6040518060400160405280600581526020017f666f756e6400000000000000000000000000000000000000000000000000000081525080519060200120828051906020012014610c97576040517f08c379a0000000000000000000000000000000000000000000000000000000008152600401610c8e90613320565b60405180910390fd5b81816004019081610ca891906134ec565b50505050565b6000600160003373ffffffffffffffffffffffffffffffffffffffff1673ffffffffffffffffffffffffffffffffffffffff16815260200190815260200160002060020160009054906101000a900460ff166003811115610d1257610d11612be4565b5b905090565b60006003811115610d2b57610d2a612be4565b5b600160003373ffffffffffffffffffffffffffffffffffffffff1673ffffffffffffffffffffffffffffffffffffffff16815260200190815260200160002060020160009054906101000a900460ff166003811115610d8d57610d8c612be4565b5b14610dcd576040517f08c379a0000000000000000000000000000000000000000000000000000000008152600401610dc49061360a565b60405180910390fd5b6000816003811115610de257610de1612be4565b5b118015610e0257506003816003811115610dff57610dfe612be4565b5b11155b610e41576040517f08c379a0000000000000000000000000000000000000000000000000000000008152600401610e3890613676565b60405180910390fd5b6040518060800160405280848152602001838152602001826003811115610e6b57610e6a612be4565b5b81526020013373ffffffffffffffffffffffffffffffffffffffff16815250600160003373ffffffffffffffffffffffffffffffffffffffff1673ffffffffffffffffffffffffffffffffffffffff1681526020019081526020016000206000820151816000019081610ede91906134ec565b506020820151816001019081610ef491906134ec565b5060408201518160020160006101000a81548160ff02191690836003811115610f2057610f1f612be4565b5b021790555060608201518160020160016101000a81548173ffffffffffffffffffffffffffffffffffffffff021916908373ffffffffffffffffffffffffffffffffffffffff1602179055509050506000610f7a826122ec565b90503373ffffffffffffffffffffffffffffffffffffffff167f92822564bab8864c3a47b34e8d23fbce5c46234eb5da261f94087b995ac0f33b82604051610fc291906136e2565b60405180910390a250505050565b60026003811115610fe457610fe3612be4565b5b600160003373ffffffffffffffffffffffffffffffffffffffff1673ffffffffffffffffffffffffffffffffffffffff16815260200190815260200160002060020160009054906101000a900460ff16600381111561104657611045612be4565b5b14611086576040517f08c379a000000000000000000000000000000000000000000000000000000000815260040161107d90613789565b60405180910390fd5b606060128610156110ce576040518060400160405280600481526020017f4869676800000000000000000000000000000000000000000000000000000000815250905061114e565b6032861115611114576040518060400160405280600681526020017f4d656469756d0000000000000000000000000000000000000000000000000000815250905061114d565b6040518060400160405280600381526020017f4c6f77000000000000000000000000000000000000000000000000000000000081525090505b5b6002600081548092919061116190613068565b919050555060405180610160016040528060025481526020018881526020018781526020018681526020016040518060400160405280600781526020017f6d697373696e670000000000000000000000000000000000000000000000000081525081526020018581526020018481526020018381526020018281526020013373ffffffffffffffffffffffffffffffffffffffff168152602001600073ffffffffffffffffffffffffffffffffffffffff1681525060036000600254815260200190815260200160002060008201518160000155602082015181600101908161124a91906134ec565b506040820151816002015560608201518160030155608082015181600401908161127491906134ec565b5060a082015181600501908161128a91906134ec565b5060c08201518160060190816112a091906134ec565b5060e08201518160070190816112b691906134ec565b506101008201518160080190816112cd91906134ec565b506101208201518160090160006101000a81548173ffffffffffffffffffffffffffffffffffffffff021916908373ffffffffffffffffffffffffffffffffffffffff16021790555061014082015181600a0160006101000a81548173ffffffffffffffffffffffffffffffffffffffff021916908373ffffffffffffffffffffffffffffffffffffffff1602179055509050507f842d1d398ebda11c4cde1217638380d3ae168866b7e5de7850053d8e80c973ee60025488833360405161139894939291906137a9565b60405180910390a150505050505050565b6000600160003373ffffffffffffffffffffffffffffffffffffffff1673ffffffffffffffffffffffffffffffffffffffff16815260200190815260200160002060020160009054906101000a900460ff16905090565b6060806000806000600160008773ffffffffffffffffffffffffffffffffffffffff1673ffffffffffffffffffffffffffffffffffffffff16815260200190815260200160002060405180608001604052908160008201805461146290613037565b80601f016020809104026020016040519081016040528092919081815260200182805461148e90613037565b80156114db5780601f106114b0576101008083540402835291602001916114db565b820191906000526020600020905b8154815290600101906020018083116114be57829003601f168201915b505050505081526020016001820180546114f490613037565b80601f016020809104026020016040519081016040528092919081815260200182805461152090613037565b801561156d5780601f106115425761010080835404028352916020019161156d565b820191906000526020600020905b81548152906001019060200180831161155057829003601f168201915b505050505081526020016002820160009054906101000a900460ff16600381111561159b5761159a612be4565b5b60038111156115ad576115ac612be4565b5b81526020016002820160019054906101000a900473ffffffffffffffffffffffffffffffffffffffff1673ffffffffffffffffffffffffffffffffffffffff1673ffffffffffffffffffffffffffffffffffffffff1681525050905080600001518160200151826040015183606001519450945094509450509193509193565b60008054906101000a900473ffffffffffffffffffffffffffffffffffffffff1681565b60025481565b600160205280600052604060002060009150905080600001805461167a90613037565b80601f01602080910402602001604051908101604052809291908181526020018280546116a690613037565b80156116f35780601f106116c8576101008083540402835291602001916116f3565b820191906000526020600020905b8154815290600101906020018083116116d657829003601f168201915b50505050509080600101805461170890613037565b80601f016020809104026020016040519081016040528092919081815260200182805461173490613037565b80156117815780601f1061175657610100808354040283529160200191611781565b820191906000526020600020905b81548152906001019060200180831161176457829003601f168201915b5050505050908060020160009054906101000a900460ff16908060020160019054906101000a900473ffffffffffffffffffffffffffffffffffffffff16905084565b6060600060608060008060036000888152602001908152602001600020604051806101600160405290816000820154815260200160018201805461180790613037565b80601f016020809104026020016040519081016040528092919081815260200182805461183390613037565b80156118805780601f1061185557610100808354040283529160200191611880565b820191906000526020600020905b81548152906001019060200180831161186357829003601f168201915b5050505050815260200160028201548152602001600382015481526020016004820180546118ad90613037565b80601f01602080910402602001604051908101604052809291908181526020018280546118d990613037565b80156119265780601f106118fb57610100808354040283529160200191611926565b820191906000526020600020905b81548152906001019060200180831161190957829003601f168201915b5050505050815260200160058201805461193f90613037565b80601f016020809104026020016040519081016040528092919081815260200182805461196b90613037565b80156119b85780601f1061198d576101008083540402835291602001916119b8565b820191906000526020600020905b81548152906001019060200180831161199b57829003601f168201915b505050505081526020016006820180546119d190613037565b80601f01602080910402602001604051908101604052809291908181526020018280546119fd90613037565b8015611a4a5780601f10611a1f57610100808354040283529160200191611a4a565b820191906000526020600020905b815481529060010190602001808311611a2d57829003601f168201915b50505050508152602001600782018054611a6390613037565b80601f0160208091040260200160405190810160405280929190818152602001828054611a8f90613037565b8015611adc5780601f10611ab157610100808354040283529160200191611adc565b820191906000526020600020905b815481529060010190602001808311611abf57829003601f168201915b50505050508152602001600882018054611af590613037565b80601f0160208091040260200160405190810160405280929190818152602001828054611b2190613037565b8015611b6e5780601f10611b4357610100808354040283529160200191611b6e565b820191906000526020600020905b815481529060010190602001808311611b5157829003601f168201915b505050505081526020016009820160009054906101000a900473ffffffffffffffffffffffffffffffffffffffff1673ffffffffffffffffffffffffffffffffffffffff1673ffffffffffffffffffffffffffffffffffffffff168152602001600a820160009054906101000a900473ffffffffffffffffffffffffffffffffffffffff1673ffffffffffffffffffffffffffffffffffffffff1673ffffffffffffffffffffffffffffffffffffffff16815250509050806020015181604001518260a00151836101000151846101200151955095509550955095505091939590929450565b6000806003811115611c6957611c68612be4565b5b600160008473ffffffffffffffffffffffffffffffffffffffff1673ffffffffffffffffffffffffffffffffffffffff16815260200190815260200160002060020160009054906101000a900460ff166003811115611ccb57611cca612be4565b5b14159050919050565b60016003811115611ce857611ce7612be4565b5b600160003373ffffffffffffffffffffffffffffffffffffffff1673ffffffffffffffffffffffffffffffffffffffff16815260200190815260200160002060020160009054906101000a900460ff166003811115611d4a57611d49612be4565b5b14611d8a576040517f08c379a0000000000000000000000000000000000000000000000000000000008152600401611d819061386e565b60405180910390fd5b600380811115611d9d57611d9c612be4565b5b600160008373ffffffffffffffffffffffffffffffffffffffff1673ffffffffffffffffffffffffffffffffffffffff16815260200190815260200160002060020160009054906101000a900460ff166003811115611dff57611dfe612be4565b5b14611e3f576040517f08c379a0000000000000000000000000000000000000000000000000000000008152600401611e3690613900565b60405180910390fd5b600082118015611e5157506002548211155b611e90576040517f08c379a0000000000000000000000000000000000000000000000000000000008152600401611e879061396c565b60405180910390fd5b8060036000848152602001908152602001600020600a0160006101000a81548173ffffffffffffffffffffffffffffffffffffffff021916908373ffffffffffffffffffffffffffffffffffffffff1602179055507f331654419c673cd3af2cda5074231ad56d4c35bee9bf59d82789df8ded368d0d8282604051611f1692919061398c565b60405180910390a15050565b6003602052806000526040600020600091509050806000015490806001018054611f4b90613037565b80601f0160208091040260200160405190810160405280929190818152602001828054611f7790613037565b8015611fc45780601f10611f9957610100808354040283529160200191611fc4565b820191906000526020600020905b815481529060010190602001808311611fa757829003601f168201915b505050505090806002015490806003015490806004018054611fe590613037565b80601f016020809104026020016040519081016040528092919081815260200182805461201190613037565b801561205e5780601f106120335761010080835404028352916020019161205e565b820191906000526020600020905b81548152906001019060200180831161204157829003601f168201915b50505050509080600501805461207390613037565b80601f016020809104026020016040519081016040528092919081815260200182805461209f90613037565b80156120ec5780601f106120c1576101008083540402835291602001916120ec565b820191906000526020600020905b8154815290600101906020018083116120cf57829003601f168201915b50505050509080600601805461210190613037565b80601f016020809104026020016040519081016040528092919081815260200182805461212d90613037565b801561217a5780601f1061214f5761010080835404028352916020019161217a565b820191906000526020600020905b81548152906001019060200180831161215d57829003601f168201915b50505050509080600701805461218f90613037565b80601f01602080910402602001604051908101604052809291908181526020018280546121bb90613037565b80156122085780601f106121dd57610100808354040283529160200191612208565b820191906000526020600020905b8154815290600101906020018083116121eb57829003601f168201915b50505050509080600801805461221d90613037565b80601f016020809104026020016040519081016040528092919081815260200182805461224990613037565b80156122965780601f1061226b57610100808354040283529160200191612296565b820191906000526020600020905b81548152906001019060200180831161227957829003601f168201915b5050505050908060090160009054906101000a900473ffffffffffffffffffffffffffffffffffffffff169080600a0160009054906101000a900473ffffffffffffffffffffffffffffffffffffffff1690508b565b60606001600381111561230257612301612be4565b5b82600381111561231557612314612be4565b5b03612357576040518060400160405280600581526020017f41646d696e0000000000000000000000000000000000000000000000000000008152509050612461565b6002600381111561236b5761236a612be4565b5b82600381111561237e5761237d612be4565b5b036123c0576040518060400160405280600881526020017f5265706f727465720000000000000000000000000000000000000000000000008152509050612461565b6003808111156123d3576123d2612be4565b5b8260038111156123e6576123e5612be4565b5b03612428576040518060400160405280600c81526020017f496e76657374696761746f7200000000000000000000000000000000000000008152509050612461565b6040518060400160405280600481526020017f4e6f6e650000000000000000000000000000000000000000000000000000000081525090505b919050565b600081519050919050565b600082825260208201905092915050565b6000819050602082019050919050565b6000819050919050565b6124a581612492565b82525050565b60006124b7838361249c565b60208301905092915050565b6000602082019050919050565b60006124db82612466565b6124e58185612471565b93506124f083612482565b8060005b8381101561252157815161250888826124ab565b9750612513836124c3565b9250506001810190506124f4565b5085935050505092915050565b600081519050919050565b600082825260208201905092915050565b6000819050602082019050919050565b600081519050919050565b600082825260208201905092915050565b60005b83811015612594578082015181840152602081019050612579565b60008484015250505050565b6000601f19601f8301169050919050565b60006125bc8261255a565b6125c68185612565565b93506125d6818560208601612576565b6125df816125a0565b840191505092915050565b60006125f683836125b1565b905092915050565b6000602082019050919050565b60006126168261252e565b6126208185612539565b9350836020820285016126328561254a565b8060005b8581101561266e578484038952815161264f85826125ea565b945061265a836125fe565b925060208a01995050600181019050612636565b50829750879550505050505092915050565b600081519050919050565b600082825260208201905092915050565b6000819050602082019050919050565b600073ffffffffffffffffffffffffffffffffffffffff82169050919050565b60006126d7826126ac565b9050919050565b6126e7816126cc565b82525050565b60006126f983836126de565b60208301905092915050565b6000602082019050919050565b600061271d82612680565b612727818561268b565b93506127328361269c565b8060005b8381101561276357815161274a88826126ed565b975061275583612705565b925050600181019050612736565b5085935050505092915050565b600061012082019050818103600083015261278b818c6124d0565b9050818103602083015261279f818b61260b565b905081810360408301526127b3818a6124d0565b905081810360608301526127c781896124d0565b905081810360808301526127db818861260b565b905081810360a08301526127ef818761260b565b905081810360c0830152612803818661260b565b905081810360e0830152612817818561260b565b905081810361010083015261282c8184612712565b90509a9950505050505050505050565b6000604051905090565b600080fd5b600080fd5b61285981612492565b811461286457600080fd5b50565b60008135905061287681612850565b92915050565b600080fd5b600080fd5b7f4e487b7100000000000000000000000000000000000000000000000000000000600052604160045260246000fd5b6128be826125a0565b810181811067ffffffffffffffff821117156128dd576128dc612886565b5b80604052505050565b60006128f061283c565b90506128fc82826128b5565b919050565b600067ffffffffffffffff82111561291c5761291b612886565b5b612925826125a0565b9050602081019050919050565b82818337600083830152505050565b600061295461294f84612901565b6128e6565b9050828152602081018484840111156129705761296f612881565b5b61297b848285612932565b509392505050565b600082601f8301126129985761299761287c565b5b81356129a8848260208601612941565b91505092915050565b600080604083850312156129c8576129c7612846565b5b60006129d685828601612867565b925050602083013567ffffffffffffffff8111156129f7576129f661284b565b5b612a0385828601612983565b9150509250929050565b612a1681612492565b82525050565b6000602082019050612a316000830184612a0d565b92915050565b60048110612a4457600080fd5b50565b600081359050612a5681612a37565b92915050565b600080600060608486031215612a7557612a74612846565b5b600084013567ffffffffffffffff811115612a9357612a9261284b565b5b612a9f86828701612983565b935050602084013567ffffffffffffffff811115612ac057612abf61284b565b5b612acc86828701612983565b9250506040612add86828701612a47565b9150509250925092565b60008060008060008060c08789031215612b0457612b03612846565b5b600087013567ffffffffffffffff811115612b2257612b2161284b565b5b612b2e89828a01612983565b9650506020612b3f89828a01612867565b9550506040612b5089828a01612867565b945050606087013567ffffffffffffffff811115612b7157612b7061284b565b5b612b7d89828a01612983565b935050608087013567ffffffffffffffff811115612b9e57612b9d61284b565b5b612baa89828a01612983565b92505060a087013567ffffffffffffffff811115612bcb57612bca61284b565b5b612bd789828a01612983565b9150509295509295509295565b7f4e487b7100000000000000000000000000000000000000000000000000000000600052602160045260246000fd5b60048110612c2457612c23612be4565b5b50565b6000819050612c3582612c13565b919050565b6000612c4582612c27565b9050919050565b612c5581612c3a565b82525050565b6000602082019050612c706000830184612c4c565b92915050565b612c7f816126cc565b8114612c8a57600080fd5b50565b600081359050612c9c81612c76565b92915050565b600060208284031215612cb857612cb7612846565b5b6000612cc684828501612c8d565b91505092915050565b600082825260208201905092915050565b6000612ceb8261255a565b612cf58185612ccf565b9350612d05818560208601612576565b612d0e816125a0565b840191505092915050565b612d22816126cc565b82525050565b60006080820190508181036000830152612d428187612ce0565b90508181036020830152612d568186612ce0565b9050612d656040830185612c4c565b612d726060830184612d19565b95945050505050565b6000602082019050612d906000830184612d19565b92915050565b600060208284031215612dac57612dab612846565b5b6000612dba84828501612867565b91505092915050565b600060a0820190508181036000830152612ddd8188612ce0565b9050612dec6020830187612a0d565b8181036040830152612dfe8186612ce0565b90508181036060830152612e128185612ce0565b9050612e216080830184612d19565b9695505050505050565b60008115159050919050565b612e4081612e2b565b82525050565b6000602082019050612e5b6000830184612e37565b92915050565b60008060408385031215612e7857612e77612846565b5b6000612e8685828601612867565b9250506020612e9785828601612c8d565b9150509250929050565b600061016082019050612eb7600083018e612a0d565b8181036020830152612ec9818d612ce0565b9050612ed8604083018c612a0d565b612ee5606083018b612a0d565b8181036080830152612ef7818a612ce0565b905081810360a0830152612f0b8189612ce0565b905081810360c0830152612f1f8188612ce0565b905081810360e0830152612f338187612ce0565b9050818103610100830152612f488186612ce0565b9050612f58610120830185612d19565b612f66610140830184612d19565b9c9b505050505050505050505050565b7f4e487b7100000000000000000000000000000000000000000000000000000000600052601160045260246000fd5b6000612fb082612492565b9150612fbb83612492565b9250828201905080821115612fd357612fd2612f76565b5b92915050565b7f4e487b7100000000000000000000000000000000000000000000000000000000600052603260045260246000fd5b7f4e487b7100000000000000000000000000000000000000000000000000000000600052602260045260246000fd5b6000600282049050600182168061304f57607f821691505b60208210810361306257613061613008565b5b50919050565b600061307382612492565b91507fffffffffffffffffffffffffffffffffffffffffffffffffffffffffffffffff82036130a5576130a4612f76565b5b600182019050919050565b7f4f6e6c792041646d696e2063616e207570646174652073746174757300000000600082015250565b60006130e6601c83612ccf565b91506130f1826130b0565b602082019050919050565b60006020820190508181036000830152613115816130d9565b9050919050565b7f4d697373696e6720706572736f6e206e6f7420666f756e640000000000000000600082015250565b6000613152601883612ccf565b915061315d8261311c565b602082019050919050565b6000602082019050818103600083015261318181613145565b9050919050565b600081905092915050565b60008190508160005260206000209050919050565b600081546131b581613037565b6131bf8186613188565b945060018216600081146131da57600181146131ef57613222565b60ff1983168652811515820286019350613222565b6131f885613193565b60005b8381101561321a578154818901526001820191506020810190506131fb565b838801955050505b50505092915050565b600061323782846131a8565b915081905092915050565b7f53746174757320616c7265616479206d61726b656420617320666f756e640000600082015250565b6000613278601e83612ccf565b915061328382613242565b602082019050919050565b600060208201905081810360008301526132a78161326b565b9050919050565b7f496e76616c696420737461747573207570646174652e204f6e6c792027666f7560008201527f6e642720697320616c6c6f7765642e0000000000000000000000000000000000602082015250565b600061330a602f83612ccf565b9150613315826132ae565b604082019050919050565b60006020820190508181036000830152613339816132fd565b9050919050565b60008190508160005260206000209050919050565b60006020601f8301049050919050565b600082821b905092915050565b6000600883026133a27fffffffffffffffffffffffffffffffffffffffffffffffffffffffffffffffff82613365565b6133ac8683613365565b95508019841693508086168417925050509392505050565b6000819050919050565b60006133e96133e46133df84612492565b6133c4565b612492565b9050919050565b6000819050919050565b613403836133ce565b61341761340f826133f0565b848454613372565b825550505050565b600090565b61342c61341f565b6134378184846133fa565b505050565b5b8181101561345b57613450600082613424565b60018101905061343d565b5050565b601f8211156134a05761347181613340565b61347a84613355565b81016020851015613489578190505b61349d61349585613355565b83018261343c565b50505b505050565b600082821c905092915050565b60006134c3600019846008026134a5565b1980831691505092915050565b60006134dc83836134b2565b9150826002028217905092915050565b6134f58261255a565b67ffffffffffffffff81111561350e5761350d612886565b5b6135188254613037565b61352382828561345f565b600060209050601f8311600181146135565760008415613544578287015190505b61354e85826134d0565b8655506135b6565b601f19841661356486613340565b60005b8281101561358c57848901518255600182019150602085019450602081019050613567565b868310156135a957848901516135a5601f8916826134b2565b8355505b6001600288020188555050505b505050505050565b7f5573657220616c72656164792072656769737465726564000000000000000000600082015250565b60006135f4601783612ccf565b91506135ff826135be565b602082019050919050565b60006020820190508181036000830152613623816135e7565b9050919050565b7f496e76616c696420726f6c650000000000000000000000000000000000000000600082015250565b6000613660600c83612ccf565b915061366b8261362a565b602082019050919050565b6000602082019050818103600083015261368f81613653565b9050919050565b7f526567697374726174696f6e207375636365737366756c000000000000000000600082015250565b60006136cc601783612ccf565b91506136d782613696565b602082019050919050565b600060408201905081810360008301526136fb816136bf565b9050818103602083015261370f8184612ce0565b905092915050565b7f4f6e6c79207265706f72746572732063616e20616464206d697373696e67207060008201527f6572736f6e730000000000000000000000000000000000000000000000000000602082015250565b6000613773602683612ccf565b915061377e82613717565b604082019050919050565b600060208201905081810360008301526137a281613766565b9050919050565b60006080820190506137be6000830187612a0d565b81810360208301526137d08186612ce0565b905081810360408301526137e48185612ce0565b90506137f36060830184612d19565b95945050505050565b7f4f6e6c792061646d696e2063616e2061737369676e20696e766573746967617460008201527f6f72730000000000000000000000000000000000000000000000000000000000602082015250565b6000613858602383612ccf565b9150613863826137fc565b604082019050919050565b600060208201905081810360008301526138878161384b565b9050919050565b7f4d7573742061737369676e20746f20612076616c696420496e7665737469676160008201527f746f720000000000000000000000000000000000000000000000000000000000602082015250565b60006138ea602383612ccf565b91506138f58261388e565b604082019050919050565b60006020820190508181036000830152613919816138dd565b9050919050565b7f496e76616c696420636173652049440000000000000000000000000000000000600082015250565b6000613956600f83612ccf565b915061396182613920565b602082019050919050565b6000602082019050818103600083015261398581613949565b9050919050565b60006040820190506139a16000830185612a0d565b6139ae6020830184612d19565b939250505056fea26469706673582212209cdd46864f358a06f4a43db7a4f768cda67ddfc9f38e46cbf989d56b51111e8f64736f6c63430008100033",
  "immutableReferences": {},
  "source": "// SPDX-License-Identifier: MIT\npragma solidity >=0.8.0;\n\ncontract MissingPersonsManagement {\n\n    enum Role { None, Admin, Reporter, Investigator }\n\n    struct User {\n        string nid;\n        string name;\n        Role role;\n        address addr;\n    }\n    address public owner;\n    mapping(address => User) public users;\n\n    event UserRegistered(address indexed user, string message, string roleName);\n\n    struct MissingPerson {\n    uint serialNumber;\n    string name;\n    uint age;\n    uint height;\n    string status; // \"missing\" or \"found\"\n    string description;\n    string lastSeenLocation; // division\n    string relativeContact;\n    string urgency;\n    address reporter;\n    address assignedInvestigator;\n\n}\n\nevent InvestigatorAssigned(uint serialNumber, address investigator);\n\nuint public missingPersonCount = 0;\nmapping(uint => MissingPerson) public missingPersons;\n\nevent MissingPersonAdded(uint serialNumber, string name, string urgency, address reporter);\n\n    constructor() {\n    owner = msg.sender;\n    // Deployer starts unregistered (Role.None)\n}\n\n\n    modifier onlyUnregistered() {\n        require(users[msg.sender].role == Role.None, \"User already registered\");\n        _;\n    }\n\n    function registerUser(string memory nid, string memory name, Role role) public onlyUnregistered {\n        require(uint(role) > 0 && uint(role) <= 3, \"Invalid role\"); // Role must not be None\n        users[msg.sender] = User(nid, name, role, msg.sender);\n\n        string memory roleName = getRoleName(role);\n        emit UserRegistered(msg.sender, \"Registration successful\", roleName);\n    }\n\n    function getRoleName(Role role) internal pure returns (string memory) {\n        if (role == Role.Admin) return \"Admin\";\n        if (role == Role.Reporter) return \"Reporter\";\n        if (role == Role.Investigator) return \"Investigator\";\n        return \"None\";\n    }\n\n    function getMyRole() public view returns (Role) {\n        return users[msg.sender].role;\n    }\n\n    function getMyRoleUint() public view returns (uint) {\n        return uint(users[msg.sender].role);\n    }\n\n    function getUser(address userAddr) public view returns (string memory, string memory, Role, address) {\n        User memory user = users[userAddr];\n        return (user.nid, user.name, user.role, user.addr);\n    }\n\n    function isRegistered(address userAddr) public view returns (bool) {\n        return users[userAddr].role != Role.None;\n    }\nfunction addMissingPerson(\n    string memory name,\n    uint age,\n    uint height,\n    string memory description,\n    string memory lastSeenLocation,\n    string memory relativeContact\n) public {\n    require(users[msg.sender].role == Role.Reporter, \"Only reporters can add missing persons\");\n\n    string memory urgency;\n    if (age < 18) {\n        urgency = \"High\";\n    } else if (age > 50) {\n        urgency = \"Medium\";\n    } else {\n        urgency = \"Low\";\n    }\n\n    missingPersonCount++;\n    missingPersons[missingPersonCount] = MissingPerson(\n        missingPersonCount,\n        name,\n        age,\n        height,\n        \"missing\",  // status\n        description,\n        lastSeenLocation,\n        relativeContact,\n        urgency,\n        msg.sender,  // reporter\n        address(0)   // assigned investigator (not assigned yet)\n    );\n\n    emit MissingPersonAdded(missingPersonCount, name, urgency, msg.sender);\n}\n\n\nfunction getMissingPerson(uint serialNumber) public view returns (string memory, uint, string memory, string memory, address) {\n    MissingPerson memory mp = missingPersons[serialNumber];\n    return (mp.name, mp.age, mp.description, mp.urgency, mp.reporter);\n}\n\nfunction updateMissingPersonStatus(uint serialNumber, string memory newStatus) public {\n    require(users[msg.sender].role == Role.Admin, \"Only Admin can update status\");\n\n    MissingPerson storage person = missingPersons[serialNumber];\n    require(bytes(person.name).length != 0, \"Missing person not found\");\n    require(keccak256(bytes(person.status)) != keccak256(bytes(\"found\")), \"Status already marked as found\");\n\n    // Only allow \"found\" as valid update\n    require(\n        keccak256(bytes(newStatus)) == keccak256(bytes(\"found\")),\n        \"Invalid status update. Only 'found' is allowed.\"\n    );\n\n    person.status = newStatus;\n}\nfunction getAllMissingPersons() public view returns (\n    uint[] memory ids,\n    string[] memory names,\n    uint[] memory ages,\n    uint[] memory heights,\n    string[] memory descriptions,\n    string[] memory lastSeenLocations,\n    string[] memory relativeContacts,\n    string[] memory statuses,\n    address[] memory investigators\n) {\n    uint count = missingPersonCount;\n    ids = new uint[](count);\n    names = new string[](count);\n    ages = new uint[](count);\n    heights = new uint[](count);\n    descriptions = new string[](count);\n    lastSeenLocations = new string[](count);\n    relativeContacts = new string[](count);\n    statuses = new string[](count);\n    investigators = new address[](count);  // Initialize an array to store investigator addresses\n\n    for (uint i = 0; i < count; i++) {\n        uint serial = i + 1;\n        MissingPerson storage p = missingPersons[serial];\n        ids[i] = p.serialNumber;\n        names[i] = p.name;\n        ages[i] = p.age;\n        heights[i] = p.height;\n        descriptions[i] = p.description;\n        lastSeenLocations[i] = p.lastSeenLocation;\n        relativeContacts[i] = p.relativeContact;\n        statuses[i] = p.status;\n        investigators[i] = p.assignedInvestigator;  // Add the investigator address\n    }\n}\n\nfunction assignInvestigator(uint caseId, address investigator) public {\n    require(users[msg.sender].role == Role.Admin, \"Only admin can assign investigators\");\n    require(users[investigator].role == Role.Investigator, \"Must assign to a valid Investigator\");\n    require(caseId > 0 && caseId <= missingPersonCount, \"Invalid case ID\");\n\n    missingPersons[caseId].assignedInvestigator = investigator;\n    emit InvestigatorAssigned(caseId, investigator);\n}\n\n\n}",
  "sourcePath": "/home/mahin/Downloads/final file (maybe)/contracts/MissingPersonsManagement.sol",
  "compiler": {
    "name": "solc",
    "version": "0.8.16+commit.07a7930e.Emscripten.clang"
  },
  "schemaVersion": "3.4.16",
  "updatedAt": "2025-05-02T17:01:52.114Z",
  "networkType": "ethereum",
  "devdoc": {
    "kind": "dev",
    "methods": {},
    "version": 1
  },
  "userdoc": {
    "kind": "user",
    "methods": {},
    "version": 1
  }
}